{
  "contractName": "GamesOnStakes",
  "abi": [
    {
      "constant": true,
      "inputs": [],
      "name": "timeout",
      "outputs": [
        {
          "name": "",
          "type": "uint16"
        }
      ],
      "payable": false,
      "stateMutability": "view",
      "type": "function"
    },
    {
      "constant": true,
      "inputs": [],
      "name": "contractPaused",
      "outputs": [
        {
          "name": "",
          "type": "bool"
        }
      ],
      "payable": false,
      "stateMutability": "view",
      "type": "function"
    },
    {
      "constant": true,
      "inputs": [],
      "name": "owner",
      "outputs": [
        {
          "name": "",
          "type": "address"
        }
      ],
      "payable": false,
      "stateMutability": "view",
      "type": "function"
    },
    {
      "inputs": [
        {
          "name": "givenTimeout",
          "type": "uint16"
        }
      ],
      "payable": false,
      "stateMutability": "nonpayable",
      "type": "constructor"
    },
    {
      "payable": true,
      "stateMutability": "payable",
      "type": "fallback"
    },
    {
      "anonymous": false,
      "inputs": [
        {
          "indexed": true,
          "name": "gameIdx",
          "type": "uint32"
        }
      ],
      "name": "GameCreated",
      "type": "event"
    },
    {
      "anonymous": false,
      "inputs": [
        {
          "indexed": true,
          "name": "gameIdx",
          "type": "uint32"
        },
        {
          "indexed": true,
          "name": "opponent",
          "type": "address"
        }
      ],
      "name": "GameAccepted",
      "type": "event"
    },
    {
      "anonymous": false,
      "inputs": [
        {
          "indexed": true,
          "name": "gameIdx",
          "type": "uint32"
        },
        {
          "indexed": true,
          "name": "opponent",
          "type": "address"
        }
      ],
      "name": "GameStarted",
      "type": "event"
    },
    {
      "anonymous": false,
      "inputs": [
        {
          "indexed": true,
          "name": "gameIdx",
          "type": "uint32"
        },
        {
          "indexed": true,
          "name": "opponent",
          "type": "address"
        }
      ],
      "name": "PositionMarked",
      "type": "event"
    },
    {
      "anonymous": false,
      "inputs": [
        {
          "indexed": true,
          "name": "gameIdx",
          "type": "uint32"
        },
        {
          "indexed": true,
          "name": "opponent",
          "type": "address"
        }
      ],
      "name": "GameEnded",
      "type": "event"
    },
    {
      "constant": true,
      "inputs": [],
      "name": "getOpenGames",
      "outputs": [
        {
          "name": "",
          "type": "uint32[]"
        }
      ],
      "payable": false,
      "stateMutability": "view",
      "type": "function"
    },
    {
      "constant": true,
      "inputs": [
        {
          "name": "gameIdx",
          "type": "uint32"
        }
      ],
      "name": "getGameInfo",
      "outputs": [
        {
          "name": "cells",
          "type": "uint8[9]"
        },
        {
          "name": "status",
          "type": "uint8"
        },
        {
          "name": "amount",
          "type": "uint256"
        },
        {
          "name": "nick1",
          "type": "string"
        },
        {
          "name": "nick2",
          "type": "string"
        }
      ],
      "payable": false,
      "stateMutability": "view",
      "type": "function"
    },
    {
      "constant": true,
      "inputs": [
        {
          "name": "gameIdx",
          "type": "uint32"
        }
      ],
      "name": "getGameTimestamp",
      "outputs": [
        {
          "name": "lastTransaction",
          "type": "uint256"
        }
      ],
      "payable": false,
      "stateMutability": "view",
      "type": "function"
    },
    {
      "constant": true,
      "inputs": [
        {
          "name": "gameIdx",
          "type": "uint32"
        }
      ],
      "name": "getGamePlayers",
      "outputs": [
        {
          "name": "player1",
          "type": "address"
        },
        {
          "name": "player2",
          "type": "address"
        }
      ],
      "payable": false,
      "stateMutability": "view",
      "type": "function"
    },
    {
      "constant": true,
      "inputs": [
        {
          "name": "gameIdx",
          "type": "uint32"
        }
      ],
      "name": "getGameWithdrawals",
      "outputs": [
        {
          "name": "player1",
          "type": "bool"
        },
        {
          "name": "player2",
          "type": "bool"
        }
      ],
      "payable": false,
      "stateMutability": "view",
      "type": "function"
    },
    {
      "constant": false,
      "inputs": [
        {
          "name": "randomNumberHash",
          "type": "bytes32"
        },
        {
          "name": "nick",
          "type": "string"
        }
      ],
      "name": "createGame",
      "outputs": [
        {
          "name": "gameIdx",
          "type": "uint32"
        }
      ],
      "payable": true,
      "stateMutability": "payable",
      "type": "function"
    },
    {
      "constant": false,
      "inputs": [
        {
          "name": "gameIdx",
          "type": "uint32"
        },
        {
          "name": "randomNumber",
          "type": "uint8"
        },
        {
          "name": "nick",
          "type": "string"
        }
      ],
      "name": "acceptGame",
      "outputs": [],
      "payable": true,
      "stateMutability": "payable",
      "type": "function"
    },
    {
      "constant": false,
      "inputs": [
        {
          "name": "gameIdx",
          "type": "uint32"
        },
        {
          "name": "revealedRandomNumber",
          "type": "uint8"
        },
        {
          "name": "revealedSalt",
          "type": "string"
        }
      ],
      "name": "confirmGame",
      "outputs": [],
      "payable": false,
      "stateMutability": "nonpayable",
      "type": "function"
    },
    {
      "constant": false,
      "inputs": [
        {
          "name": "gameIdx",
          "type": "uint32"
        },
        {
          "name": "cell",
          "type": "uint8"
        }
      ],
      "name": "markPosition",
      "outputs": [],
      "payable": false,
      "stateMutability": "nonpayable",
      "type": "function"
    },
    {
      "constant": false,
      "inputs": [
        {
          "name": "gameIdx",
          "type": "uint32"
        }
      ],
      "name": "withdraw",
      "outputs": [],
      "payable": false,
      "stateMutability": "nonpayable",
      "type": "function"
    },
    {
      "constant": false,
      "inputs": [],
      "name": "circuitBreaker",
      "outputs": [],
      "payable": false,
      "stateMutability": "nonpayable",
      "type": "function"
    },
    {
      "constant": false,
      "inputs": [],
      "name": "circuitMaker",
      "outputs": [],
      "payable": false,
      "stateMutability": "nonpayable",
      "type": "function"
    },
    {
      "constant": true,
      "inputs": [
        {
          "name": "randomNumber",
          "type": "uint8"
        },
        {
          "name": "salt",
          "type": "string"
        }
      ],
      "name": "saltedHash",
      "outputs": [
        {
          "name": "",
          "type": "bytes32"
        }
      ],
      "payable": false,
      "stateMutability": "pure",
      "type": "function"
    }
  ],
  "bytecode": "0x60806040526000600260066101000a81548160ff0219169083151502179055503480156200002c57600080fd5b506040516020806200419f833981018060405260208110156200004e57600080fd5b810190808051906020019092919050505060008161ffff16146200008f5780600260046101000a81548161ffff021916908361ffff160217905550620000af565b610258600260046101000a81548161ffff021916908361ffff1602179055505b506140df80620000c06000396000f3fe6080604052600436106100f35760003560e01c80638a67456a1161008a578063b60d0e9b11610059578063b60d0e9b14610806578063c5d2a7a514610854578063d9a618ae1461086b578063e75d7e3e146108cf576100f3565b80638a67456a146106675780638da5cb5b14610696578063a97d07b0146106ed578063aa9224cd146107c5576100f3565b806343b95d7b116100c657806343b95d7b146102fd5780636474c5b8146103e257806370dea79a146104cb578063848a2351146104fe576100f3565b80630cc99ca2146100f857806316efd941146101ac57806322719305146101c3578063351638b0146102a8575b600080fd5b34801561010457600080fd5b506101376004803603602081101561011b57600080fd5b81019080803563ffffffff16906020019092919050505061093b565b604051808373ffffffffffffffffffffffffffffffffffffffff1673ffffffffffffffffffffffffffffffffffffffff1681526020018273ffffffffffffffffffffffffffffffffffffffff1673ffffffffffffffffffffffffffffffffffffffff1681526020019250505060405180910390f35b3480156101b857600080fd5b506101c16109e7565b005b610286600480360360408110156101d957600080fd5b81019080803590602001909291908035906020019064010000000081111561020057600080fd5b82018360208201111561021257600080fd5b8035906020019184600183028401116401000000008311171561023457600080fd5b91908080601f016020809104026020016040519081016040528093929190818152602001838380828437600081840152601f19601f820116905080830192505050505050509192919290505050610b50565b604051808263ffffffff1663ffffffff16815260200191505060405180910390f35b3480156102b457600080fd5b506102e7600480360360208110156102cb57600080fd5b81019080803563ffffffff169060200190929190505050610e68565b6040518082815260200191505060405180910390f35b34801561030957600080fd5b506103e06004803603606081101561032057600080fd5b81019080803563ffffffff169060200190929190803560ff1690602001909291908035906020019064010000000081111561035a57600080fd5b82018360208201111561036c57600080fd5b8035906020019184600183028401116401000000008311171561038e57600080fd5b91908080601f016020809104026020016040519081016040528093929190818152602001838380828437600081840152601f19601f820116905080830192505050505050509192919290505050610e94565b005b3480156103ee57600080fd5b506104b56004803603604081101561040557600080fd5b81019080803560ff1690602001909291908035906020019064010000000081111561042f57600080fd5b82018360208201111561044157600080fd5b8035906020019184600183028401116401000000008311171561046357600080fd5b91908080601f016020809104026020016040519081016040528093929190818152602001838380828437600081840152601f19601f820116905080830192505050505050509192919290505050611385565b6040518082815260200191505060405180910390f35b3480156104d757600080fd5b506104e061148c565b604051808261ffff1661ffff16815260200191505060405180910390f35b34801561050a57600080fd5b5061053d6004803603602081101561052157600080fd5b81019080803563ffffffff1690602001909291905050506114a0565b6040518086600960200280838360005b8381101561056857808201518184015260208101905061054d565b505050509050018560ff1660ff1681526020018481526020018060200180602001838103835285818151815260200191508051906020019080838360005b838110156105c15780820151818401526020810190506105a6565b50505050905090810190601f1680156105ee5780820380516001836020036101000a031916815260200191505b50838103825284818151815260200191508051906020019080838360005b8381101561062757808201518184015260208101905061060c565b50505050905090810190601f1680156106545780820380516001836020036101000a031916815260200191505b5097505050505050505060405180910390f35b34801561067357600080fd5b5061067c611731565b604051808215151515815260200191505060405180910390f35b3480156106a257600080fd5b506106ab611744565b604051808273ffffffffffffffffffffffffffffffffffffffff1673ffffffffffffffffffffffffffffffffffffffff16815260200191505060405180910390f35b6107c36004803603606081101561070357600080fd5b81019080803563ffffffff169060200190929190803560ff1690602001909291908035906020019064010000000081111561073d57600080fd5b82018360208201111561074f57600080fd5b8035906020019184600183028401116401000000008311171561077157600080fd5b91908080601f016020809104026020016040519081016040528093929190818152602001838380828437600081840152601f19601f82011690508083019250505050505050919291929050505061176a565b005b3480156107d157600080fd5b50610804600480360360208110156107e857600080fd5b81019080803563ffffffff169060200190929190505050611bd9565b005b34801561081257600080fd5b506108526004803603604081101561082957600080fd5b81019080803563ffffffff169060200190929190803560ff169060200190929190505050612e76565b005b34801561086057600080fd5b50610869613d25565b005b34801561087757600080fd5b506108aa6004803603602081101561088e57600080fd5b81019080803563ffffffff169060200190929190505050613e05565b6040518083151515158152602001821515151581526020019250505060405180910390f35b3480156108db57600080fd5b506108e4613e99565b6040518080602001828103825283818151815260200191508051906020019060200280838360005b8381101561092757808201518184015260208101905061090c565b505050509050019250505060405180910390f35b600080600160008463ffffffff1663ffffffff16815260200190815260200160002060040160006002811061096c57fe5b0160009054906101000a900473ffffffffffffffffffffffffffffffffffffffff16600160008563ffffffff1663ffffffff1681526020019081526020016000206004016001600281106109bc57fe5b0160009054906101000a900473ffffffffffffffffffffffffffffffffffffffff1691509150915091565b3373ffffffffffffffffffffffffffffffffffffffff16600260079054906101000a900473ffffffffffffffffffffffffffffffffffffffff1673ffffffffffffffffffffffffffffffffffffffff1614610aaa576040517f08c379a000000000000000000000000000000000000000000000000000000000815260040180806020018281038252601e8152602001807f4f776e65722773207065726d697373696f6e206973207265717569726564000081525060200191505060405180910390fd5b60001515600260069054906101000a900460ff16151514610b33576040517f08c379a000000000000000000000000000000000000000000000000000000000815260040180806020018281038252601e8152602001807f20436f6e747261637420697320706175736564207269676874206e6f7720000081525060200191505060405180910390fd5b6001600260066101000a81548160ff021916908315150217905550565b6000600260009054906101000a900463ffffffff1663ffffffff166001600260009054906101000a900463ffffffff160163ffffffff1611610b9157600080fd5b60008054905060016000600260009054906101000a900463ffffffff1663ffffffff1663ffffffff16815260200190815260200160002060000160006101000a81548163ffffffff021916908363ffffffff1602179055508260016000600260009054906101000a900463ffffffff1663ffffffff1663ffffffff168152602001908152602001600020600a01819055503460016000600260009054906101000a900463ffffffff1663ffffffff1663ffffffff168152602001908152602001600020600301819055508160016000600260009054906101000a900463ffffffff1663ffffffff1663ffffffff168152602001908152602001600020600601600060028110610c9c57fe5b019080519060200190610cb0929190613f1d565b503360016000600260009054906101000a900463ffffffff1663ffffffff1663ffffffff168152602001908152602001600020600401600060028110610cf257fe5b0160006101000a81548173ffffffffffffffffffffffffffffffffffffffff021916908373ffffffffffffffffffffffffffffffffffffffff1602179055504260016000600260009054906101000a900463ffffffff1663ffffffff1663ffffffff168152602001908152602001600020600801819055506000600260009054906101000a900463ffffffff16908060018154018082558091505090600182039060005260206000209060089182820401919006600402909192909190916101000a81548163ffffffff021916908363ffffffff16021790555050600260009054906101000a900463ffffffff169050600260009054906101000a900463ffffffff1663ffffffff167fe086303ca1b48642b0b5ba69da2571f5e80c0316d829fef02a512f986d2dd97d60405160405180910390a26002600081819054906101000a900463ffffffff168092919060010191906101000a81548163ffffffff021916908363ffffffff1602179055505092915050565b6000600160008363ffffffff1663ffffffff168152602001908152602001600020600801549050919050565b600260009054906101000a900463ffffffff1663ffffffff168363ffffffff1610610ebe57600080fd5b3373ffffffffffffffffffffffffffffffffffffffff16600160008563ffffffff1663ffffffff168152602001908152602001600020600401600060028110610f0357fe5b0160009054906101000a900473ffffffffffffffffffffffffffffffffffffffff1673ffffffffffffffffffffffffffffffffffffffff1614610f4557600080fd5b600073ffffffffffffffffffffffffffffffffffffffff16600160008563ffffffff1663ffffffff168152602001908152602001600020600401600160028110610f8b57fe5b0160009054906101000a900473ffffffffffffffffffffffffffffffffffffffff1673ffffffffffffffffffffffffffffffffffffffff161415610fce57600080fd5b6000600160008563ffffffff1663ffffffff16815260200190815260200160002060020160009054906101000a900460ff1660ff161461100d57600080fd5b60006110198383611385565b9050600160008563ffffffff1663ffffffff168152602001908152602001600020600a0154811461116957600c600160008663ffffffff1663ffffffff16815260200190815260200160002060020160006101000a81548160ff021916908360ff1602179055503373ffffffffffffffffffffffffffffffffffffffff168463ffffffff167f429f8719638cba0a0c2c2f5abdaed73702d21228925bbda0ac0a575bbfed444b60405160405180910390a3600160008563ffffffff1663ffffffff1681526020019081526020016000206004016001600281106110f857fe5b0160009054906101000a900473ffffffffffffffffffffffffffffffffffffffff1673ffffffffffffffffffffffffffffffffffffffff168463ffffffff167f429f8719638cba0a0c2c2f5abdaed73702d21228925bbda0ac0a575bbfed444b60405160405180910390a350611380565b42600160008663ffffffff1663ffffffff16815260200190815260200160002060080181905550600060018060008763ffffffff1663ffffffff168152602001908152602001600020600b0160009054906101000a900460ff1685181660ff1614156112a85760018060008663ffffffff1663ffffffff16815260200190815260200160002060020160006101000a81548160ff021916908360ff160217905550600160008563ffffffff1663ffffffff16815260200190815260200160002060040160016002811061123857fe5b0160009054906101000a900473ffffffffffffffffffffffffffffffffffffffff1673ffffffffffffffffffffffffffffffffffffffff168463ffffffff167f6d8a1d2dfca1665cabe339d00b017fc53268dbd538c20c3cefc2ce4076ff928a60405160405180910390a361137e565b6002600160008663ffffffff1663ffffffff16815260200190815260200160002060020160006101000a81548160ff021916908360ff160217905550600160008563ffffffff1663ffffffff16815260200190815260200160002060040160016002811061131257fe5b0160009054906101000a900473ffffffffffffffffffffffffffffffffffffffff1673ffffffffffffffffffffffffffffffffffffffff168463ffffffff167f6d8a1d2dfca1665cabe339d00b017fc53268dbd538c20c3cefc2ce4076ff928a60405160405180910390a35b505b505050565b600073__StringSupport_________________________636474c5b884846040518363ffffffff1660e01b8152600401808360ff1660ff16815260200180602001828103825283818151815260200191508051906020019080838360005b838110156113fe5780820151818401526020810190506113e3565b50505050905090810190601f16801561142b5780820380516001836020036101000a031916815260200191505b50935050505060206040518083038186803b15801561144957600080fd5b505af415801561145d573d6000803e3d6000fd5b505050506040513d602081101561147357600080fd5b8101908080519060200190929190505050905092915050565b600260049054906101000a900461ffff1681565b6114a8613f9d565b600080606080600160008763ffffffff1663ffffffff168152602001908152602001600020600101600160008863ffffffff1663ffffffff16815260200190815260200160002060020160009054906101000a900460ff16600160008963ffffffff1663ffffffff16815260200190815260200160002060030154600160008a63ffffffff1663ffffffff16815260200190815260200160002060060160006002811061155157fe5b01600160008b63ffffffff1663ffffffff16815260200190815260200160002060060160016002811061158057fe5b01846009806020026040519081016040528092919082600980156115df576020028201916000905b82829054906101000a900460ff1660ff16815260200190600101906020826000010492830192600103820291508084116115a85790505b50505050509450818054600181600116156101000203166002900480601f01602080910402602001604051908101604052809291908181526020018280546001816001161561010002031660029004801561167b5780601f106116505761010080835404028352916020019161167b565b820191906000526020600020905b81548152906001019060200180831161165e57829003601f168201915b50505050509150808054600181600116156101000203166002900480601f0160208091040260200160405190810160405280929190818152602001828054600181600116156101000203166002900480156117175780601f106116ec57610100808354040283529160200191611717565b820191906000526020600020905b8154815290600101906020018083116116fa57829003601f168201915b505050505090509450945094509450945091939590929450565b600260069054906101000a900460ff1681565b600260079054906101000a900473ffffffffffffffffffffffffffffffffffffffff1681565b600260009054906101000a900463ffffffff1663ffffffff168363ffffffff161061179457600080fd5b600073ffffffffffffffffffffffffffffffffffffffff16600160008563ffffffff1663ffffffff1681526020019081526020016000206004016000600281106117da57fe5b0160009054906101000a900473ffffffffffffffffffffffffffffffffffffffff1673ffffffffffffffffffffffffffffffffffffffff16141561181d57600080fd5b600160008463ffffffff1663ffffffff16815260200190815260200160002060030154341461184b57600080fd5b600073ffffffffffffffffffffffffffffffffffffffff16600160008563ffffffff1663ffffffff16815260200190815260200160002060040160016002811061189157fe5b0160009054906101000a900473ffffffffffffffffffffffffffffffffffffffff1673ffffffffffffffffffffffffffffffffffffffff16146118d357600080fd5b6000600160008563ffffffff1663ffffffff16815260200190815260200160002060020160009054906101000a900460ff1660ff161461191257600080fd5b81600160008563ffffffff1663ffffffff168152602001908152602001600020600b0160006101000a81548160ff021916908360ff16021790555080600160008563ffffffff1663ffffffff16815260200190815260200160002060060160016002811061197c57fe5b019080519060200190611990929190613f1d565b5033600160008563ffffffff1663ffffffff1681526020019081526020016000206004016001600281106119c057fe5b0160006101000a81548173ffffffffffffffffffffffffffffffffffffffff021916908373ffffffffffffffffffffffffffffffffffffffff16021790555042600160008563ffffffff1663ffffffff16815260200190815260200160002060080181905550600160008463ffffffff1663ffffffff168152602001908152602001600020600401600060028110611a5457fe5b0160009054906101000a900473ffffffffffffffffffffffffffffffffffffffff1673ffffffffffffffffffffffffffffffffffffffff168363ffffffff167fefe144453900c4d0cd4aef4f468771772ebc548b1253de88ff1a1291b7a5785060405160405180910390a36000600160008563ffffffff1663ffffffff16815260200190815260200160002060000160009054906101000a900463ffffffff16905060008060016000805490500381548110611b0c57fe5b90600052602060002090600891828204019190066004029054906101000a900463ffffffff1690508060008363ffffffff1681548110611b4857fe5b90600052602060002090600891828204019190066004026101000a81548163ffffffff021916908363ffffffff16021790555081600160008363ffffffff1663ffffffff16815260200190815260200160002060000160006101000a81548163ffffffff021916908363ffffffff1602179055506000805480919060019003611bd19190613fc0565b505050505050565b600260009054906101000a900463ffffffff1663ffffffff168163ffffffff1610611c0357600080fd5b6000600160008363ffffffff1663ffffffff1681526020019081526020016000206003015411611c9b576040517f08c379a000000000000000000000000000000000000000000000000000000000815260040180806020018281038252601b8152602001807f5468652062657420616d6f756e742063616e206e6f742062652030000000000081525060200191505060405180910390fd5b6000600160008363ffffffff1663ffffffff16815260200190815260200160002060020160009054906101000a900460ff16905060008160ff16141561224f57600260049054906101000a900461ffff1661ffff16600160008463ffffffff1663ffffffff16815260200190815260200160002060080154420311611d1f57600080fd5b3373ffffffffffffffffffffffffffffffffffffffff16600160008463ffffffff1663ffffffff168152602001908152602001600020600401600060028110611d6457fe5b0160009054906101000a900473ffffffffffffffffffffffffffffffffffffffff1673ffffffffffffffffffffffffffffffffffffffff16141561207c57600073ffffffffffffffffffffffffffffffffffffffff16600160008463ffffffff1663ffffffff168152602001908152602001600020600401600160028110611de857fe5b0160009054906101000a900473ffffffffffffffffffffffffffffffffffffffff1673ffffffffffffffffffffffffffffffffffffffff1614611e2a57600080fd5b60018060008463ffffffff1663ffffffff168152602001908152602001600020600901600060028110611e5957fe5b602091828204019190066101000a81548160ff021916908315150217905550600a600160008463ffffffff1663ffffffff16815260200190815260200160002060020160006101000a81548160ff021916908360ff1602179055503373ffffffffffffffffffffffffffffffffffffffff166108fc600160008563ffffffff1663ffffffff168152602001908152602001600020600301549081150290604051600060405180830381858888f19350505050158015611f1c573d6000803e3d6000fd5b506000600160008463ffffffff1663ffffffff16815260200190815260200160002060000160009054906101000a900463ffffffff169050600060016000805490500381548110611f6957fe5b90600052602060002090600891828204019190066004029054906101000a900463ffffffff1660008263ffffffff1681548110611fa257fe5b90600052602060002090600891828204019190066004026101000a81548163ffffffff021916908363ffffffff16021790555080600160008563ffffffff1663ffffffff16815260200190815260200160002060000160006101000a81548163ffffffff021916908363ffffffff160217905550600080548091906001900361202b9190613fc0565b503373ffffffffffffffffffffffffffffffffffffffff168363ffffffff167f429f8719638cba0a0c2c2f5abdaed73702d21228925bbda0ac0a575bbfed444b60405160405180910390a35061224a565b3373ffffffffffffffffffffffffffffffffffffffff16600160008463ffffffff1663ffffffff1681526020019081526020016000206004016001600281106120c157fe5b0160009054906101000a900473ffffffffffffffffffffffffffffffffffffffff1673ffffffffffffffffffffffffffffffffffffffff1614156122445760018060008463ffffffff1663ffffffff16815260200190815260200160002060090160016002811061212e57fe5b602091828204019190066101000a81548160ff021916908315150217905550600c600160008463ffffffff1663ffffffff16815260200190815260200160002060020160006101000a81548160ff021916908360ff1602179055503373ffffffffffffffffffffffffffffffffffffffff166108fc6002600160008663ffffffff1663ffffffff16815260200190815260200160002060030154029081150290604051600060405180830381858888f193505050501580156121f4573d6000803e3d6000fd5b503373ffffffffffffffffffffffffffffffffffffffff168263ffffffff167f429f8719638cba0a0c2c2f5abdaed73702d21228925bbda0ac0a575bbfed444b60405160405180910390a3612249565b600080fd5b5b612e72565b60018160ff161415612523573373ffffffffffffffffffffffffffffffffffffffff16600160008463ffffffff1663ffffffff1681526020019081526020016000206004016001600281106122a057fe5b0160009054906101000a900473ffffffffffffffffffffffffffffffffffffffff1673ffffffffffffffffffffffffffffffffffffffff16146122e257600080fd5b600260049054906101000a900461ffff1661ffff16600160008463ffffffff1663ffffffff1681526020019081526020016000206008015442031161238f576040517f08c379a00000000000000000000000000000000000000000000000000000000081526004018080602001828103825260138152602001807f47616d65206973207374696c6c20616c6976650000000000000000000000000081525060200191505060405180910390fd5b60018060008463ffffffff1663ffffffff1681526020019081526020016000206009016001600281106123be57fe5b602091828204019190066101000a81548160ff021916908315150217905550600c600160008463ffffffff1663ffffffff16815260200190815260200160002060020160006101000a81548160ff021916908360ff1602179055503373ffffffffffffffffffffffffffffffffffffffff166108fc6002600160008663ffffffff1663ffffffff16815260200190815260200160002060030154029081150290604051600060405180830381858888f19350505050158015612484573d6000803e3d6000fd5b50600160008363ffffffff1663ffffffff1681526020019081526020016000206004016000600281106124b357fe5b0160009054906101000a900473ffffffffffffffffffffffffffffffffffffffff1673ffffffffffffffffffffffffffffffffffffffff168263ffffffff167f429f8719638cba0a0c2c2f5abdaed73702d21228925bbda0ac0a575bbfed444b60405160405180910390a3612e71565b60028160ff1614156127f7573373ffffffffffffffffffffffffffffffffffffffff16600160008463ffffffff1663ffffffff16815260200190815260200160002060040160006002811061257457fe5b0160009054906101000a900473ffffffffffffffffffffffffffffffffffffffff1673ffffffffffffffffffffffffffffffffffffffff16146125b657600080fd5b600260049054906101000a900461ffff1661ffff16600160008463ffffffff1663ffffffff16815260200190815260200160002060080154420311612663576040517f08c379a00000000000000000000000000000000000000000000000000000000081526004018080602001828103825260138152602001807f47616d65206973207374696c6c20616c6976650000000000000000000000000081525060200191505060405180910390fd5b60018060008463ffffffff1663ffffffff16815260200190815260200160002060090160006002811061269257fe5b602091828204019190066101000a81548160ff021916908315150217905550600b600160008463ffffffff1663ffffffff16815260200190815260200160002060020160006101000a81548160ff021916908360ff1602179055503373ffffffffffffffffffffffffffffffffffffffff166108fc6002600160008663ffffffff1663ffffffff16815260200190815260200160002060030154029081150290604051600060405180830381858888f19350505050158015612758573d6000803e3d6000fd5b50600160008363ffffffff1663ffffffff16815260200190815260200160002060040160016002811061278757fe5b0160009054906101000a900473ffffffffffffffffffffffffffffffffffffffff1673ffffffffffffffffffffffffffffffffffffffff168263ffffffff167f429f8719638cba0a0c2c2f5abdaed73702d21228925bbda0ac0a575bbfed444b60405160405180910390a3612e70565b600a8160ff161415612b28573373ffffffffffffffffffffffffffffffffffffffff16600160008463ffffffff1663ffffffff16815260200190815260200160002060040160006002811061284857fe5b0160009054906101000a900473ffffffffffffffffffffffffffffffffffffffff1673ffffffffffffffffffffffffffffffffffffffff16141561299057600160008363ffffffff1663ffffffff1681526020019081526020016000206009016000600281106128b457fe5b602091828204019190069054906101000a900460ff16156128d457600080fd5b60018060008463ffffffff1663ffffffff16815260200190815260200160002060090160006002811061290357fe5b602091828204019190066101000a81548160ff0219169083151502179055503373ffffffffffffffffffffffffffffffffffffffff166108fc600160008563ffffffff1663ffffffff168152602001908152602001600020600301549081150290604051600060405180830381858888f1935050505015801561298a573d6000803e3d6000fd5b50612b23565b3373ffffffffffffffffffffffffffffffffffffffff16600160008463ffffffff1663ffffffff1681526020019081526020016000206004016001600281106129d557fe5b0160009054906101000a900473ffffffffffffffffffffffffffffffffffffffff1673ffffffffffffffffffffffffffffffffffffffff161415612b1d57600160008363ffffffff1663ffffffff168152602001908152602001600020600901600160028110612a4157fe5b602091828204019190069054906101000a900460ff1615612a6157600080fd5b60018060008463ffffffff1663ffffffff168152602001908152602001600020600901600160028110612a9057fe5b602091828204019190066101000a81548160ff0219169083151502179055503373ffffffffffffffffffffffffffffffffffffffff166108fc600160008563ffffffff1663ffffffff168152602001908152602001600020600301549081150290604051600060405180830381858888f19350505050158015612b17573d6000803e3d6000fd5b50612b22565b600080fd5b5b612e6f565b600b8160ff161415612cc8573373ffffffffffffffffffffffffffffffffffffffff16600160008463ffffffff1663ffffffff168152602001908152602001600020600401600060028110612b7957fe5b0160009054906101000a900473ffffffffffffffffffffffffffffffffffffffff1673ffffffffffffffffffffffffffffffffffffffff1614612bbb57600080fd5b600160008363ffffffff1663ffffffff168152602001908152602001600020600901600060028110612be957fe5b602091828204019190069054906101000a900460ff1615612c0957600080fd5b60018060008463ffffffff1663ffffffff168152602001908152602001600020600901600060028110612c3857fe5b602091828204019190066101000a81548160ff0219169083151502179055503373ffffffffffffffffffffffffffffffffffffffff166108fc6002600160008663ffffffff1663ffffffff16815260200190815260200160002060030154029081150290604051600060405180830381858888f19350505050158015612cc2573d6000803e3d6000fd5b50612e6e565b600c8160ff161415612e68573373ffffffffffffffffffffffffffffffffffffffff16600160008463ffffffff1663ffffffff168152602001908152602001600020600401600160028110612d1957fe5b0160009054906101000a900473ffffffffffffffffffffffffffffffffffffffff1673ffffffffffffffffffffffffffffffffffffffff1614612d5b57600080fd5b600160008363ffffffff1663ffffffff168152602001908152602001600020600901600160028110612d8957fe5b602091828204019190069054906101000a900460ff1615612da957600080fd5b60018060008463ffffffff1663ffffffff168152602001908152602001600020600901600160028110612dd857fe5b602091828204019190066101000a81548160ff0219169083151502179055503373ffffffffffffffffffffffffffffffffffffffff166108fc6002600160008663ffffffff1663ffffffff16815260200190815260200160002060030154029081150290604051600060405180830381858888f19350505050158015612e62573d6000803e3d6000fd5b50612e6d565b600080fd5b5b5b5b5b5b5050565b600260009054906101000a900463ffffffff1663ffffffff168263ffffffff1610612ea057600080fd5b60088160ff161115612efd576040517f08c379a00000000000000000000000000000000000000000000000000000000081526004018080602001828103825260418152602001806140736041913960600191505060405180910390fd5b6000600160008463ffffffff1663ffffffff16815260200190815260200160002060010190506000818360ff1660098110612f3457fe5b602091828204019190069054906101000a900460ff1660ff1614612fc0576040517f08c379a00000000000000000000000000000000000000000000000000000000081526004018080602001828103825260198152602001807f4e6f20506c61796572206861732073746172746564207965740000000000000081525060200191505060405180910390fd5b60018060008563ffffffff1663ffffffff16815260200190815260200160002060020160009054906101000a900460ff1660ff16141561319c573373ffffffffffffffffffffffffffffffffffffffff16600160008563ffffffff1663ffffffff16815260200190815260200160002060040160006002811061303f57fe5b0160009054906101000a900473ffffffffffffffffffffffffffffffffffffffff1673ffffffffffffffffffffffffffffffffffffffff16146130cd576040517f08c379a000000000000000000000000000000000000000000000000000000000815260040180806020018281038252602d815260200180614020602d913960400191505060405180910390fd5b6001818360ff16600981106130de57fe5b602091828204019190066101000a81548160ff021916908360ff160217905550600160008463ffffffff1663ffffffff16815260200190815260200160002060040160016002811061312c57fe5b0160009054906101000a900473ffffffffffffffffffffffffffffffffffffffff1673ffffffffffffffffffffffffffffffffffffffff168363ffffffff167f7c1c0c6b1708045c68283431dcc9a3e573d5913b92a88cb614662851d4b67cfe60405160405180910390a361337f565b6002600160008563ffffffff1663ffffffff16815260200190815260200160002060020160009054906101000a900460ff1660ff161415613379573373ffffffffffffffffffffffffffffffffffffffff16600160008563ffffffff1663ffffffff16815260200190815260200160002060040160016002811061321c57fe5b0160009054906101000a900473ffffffffffffffffffffffffffffffffffffffff1673ffffffffffffffffffffffffffffffffffffffff16146132aa576040517f08c379a000000000000000000000000000000000000000000000000000000000815260040180806020018281038252602681526020018061404d6026913960400191505060405180910390fd5b6002818360ff16600981106132bb57fe5b602091828204019190066101000a81548160ff021916908360ff160217905550600160008463ffffffff1663ffffffff16815260200190815260200160002060040160006002811061330957fe5b0160009054906101000a900473ffffffffffffffffffffffffffffffffffffffff1673ffffffffffffffffffffffffffffffffffffffff168363ffffffff167f7c1c0c6b1708045c68283431dcc9a3e573d5913b92a88cb614662851d4b67cfe60405160405180910390a361337e565b600080fd5b5b42600160008563ffffffff1663ffffffff168152602001908152602001600020600801819055506000816002600981106133b557fe5b602091828204019190069054906101000a900460ff16826001600981106133d857fe5b602091828204019190069054906101000a900460ff16836000600981106133fb57fe5b602091828204019190069054906101000a900460ff16161660ff16141580613491575060008160056009811061342d57fe5b602091828204019190069054906101000a900460ff168260046009811061345057fe5b602091828204019190069054906101000a900460ff168360036009811061347357fe5b602091828204019190069054906101000a900460ff16161660ff1614155b8061350a57506000816008600981106134a657fe5b602091828204019190069054906101000a900460ff16826007600981106134c957fe5b602091828204019190069054906101000a900460ff16836006600981106134ec57fe5b602091828204019190069054906101000a900460ff16161660ff1614155b80613583575060008160066009811061351f57fe5b602091828204019190069054906101000a900460ff168260036009811061354257fe5b602091828204019190069054906101000a900460ff168360006009811061356557fe5b602091828204019190069054906101000a900460ff16161660ff1614155b806135fc575060008160076009811061359857fe5b602091828204019190069054906101000a900460ff16826004600981106135bb57fe5b602091828204019190069054906101000a900460ff16836001600981106135de57fe5b602091828204019190069054906101000a900460ff16161660ff1614155b80613675575060008160086009811061361157fe5b602091828204019190069054906101000a900460ff168260056009811061363457fe5b602091828204019190069054906101000a900460ff168360026009811061365757fe5b602091828204019190069054906101000a900460ff16161660ff1614155b806136ee575060008160086009811061368a57fe5b602091828204019190069054906101000a900460ff16826004600981106136ad57fe5b602091828204019190069054906101000a900460ff16836000600981106136d057fe5b602091828204019190069054906101000a900460ff16161660ff1614155b80613767575060008160066009811061370357fe5b602091828204019190069054906101000a900460ff168260046009811061372657fe5b602091828204019190069054906101000a900460ff168360026009811061374957fe5b602091828204019190069054906101000a900460ff16161660ff1614155b1561390557808260ff166009811061377b57fe5b602091828204019190069054906101000a900460ff16600a01600160008563ffffffff1663ffffffff16815260200190815260200160002060020160006101000a81548160ff021916908360ff160217905550600160008463ffffffff1663ffffffff1681526020019081526020016000206004016000600281106137fc57fe5b0160009054906101000a900473ffffffffffffffffffffffffffffffffffffffff1673ffffffffffffffffffffffffffffffffffffffff168363ffffffff167f429f8719638cba0a0c2c2f5abdaed73702d21228925bbda0ac0a575bbfed444b60405160405180910390a3600160008463ffffffff1663ffffffff16815260200190815260200160002060040160016002811061389557fe5b0160009054906101000a900473ffffffffffffffffffffffffffffffffffffffff1673ffffffffffffffffffffffffffffffffffffffff168363ffffffff167f429f8719638cba0a0c2c2f5abdaed73702d21228925bbda0ac0a575bbfed444b60405160405180910390a3613d20565b60008160006009811061391457fe5b602091828204019190069054906101000a900460ff1660ff1614158015613961575060008160016009811061394557fe5b602091828204019190069054906101000a900460ff1660ff1614155b8015613993575060008160026009811061397757fe5b602091828204019190069054906101000a900460ff1660ff1614155b80156139c557506000816003600981106139a957fe5b602091828204019190069054906101000a900460ff1660ff1614155b80156139f757506000816004600981106139db57fe5b602091828204019190069054906101000a900460ff1660ff1614155b8015613a295750600081600560098110613a0d57fe5b602091828204019190069054906101000a900460ff1660ff1614155b8015613a5b5750600081600660098110613a3f57fe5b602091828204019190069054906101000a900460ff1660ff1614155b8015613a8d5750600081600760098110613a7157fe5b602091828204019190069054906101000a900460ff1660ff1614155b8015613abf5750600081600860098110613aa357fe5b602091828204019190069054906101000a900460ff1660ff1614155b15613c3757600a600160008563ffffffff1663ffffffff16815260200190815260200160002060020160006101000a81548160ff021916908360ff160217905550600160008463ffffffff1663ffffffff168152602001908152602001600020600401600060028110613b2e57fe5b0160009054906101000a900473ffffffffffffffffffffffffffffffffffffffff1673ffffffffffffffffffffffffffffffffffffffff168363ffffffff167f429f8719638cba0a0c2c2f5abdaed73702d21228925bbda0ac0a575bbfed444b60405160405180910390a3600160008463ffffffff1663ffffffff168152602001908152602001600020600401600160028110613bc757fe5b0160009054906101000a900473ffffffffffffffffffffffffffffffffffffffff1673ffffffffffffffffffffffffffffffffffffffff168363ffffffff167f429f8719638cba0a0c2c2f5abdaed73702d21228925bbda0ac0a575bbfed444b60405160405180910390a3613d1f565b6001818360ff1660098110613c4857fe5b602091828204019190069054906101000a900460ff1660ff161415613ca8576002600160008563ffffffff1663ffffffff16815260200190815260200160002060020160006101000a81548160ff021916908360ff160217905550613d1e565b6002818360ff1660098110613cb957fe5b602091828204019190069054906101000a900460ff1660ff161415613d185760018060008563ffffffff1663ffffffff16815260200190815260200160002060020160006101000a81548160ff021916908360ff160217905550613d1d565b600080fd5b5b5b5b505050565b3373ffffffffffffffffffffffffffffffffffffffff16600260079054906101000a900473ffffffffffffffffffffffffffffffffffffffff1673ffffffffffffffffffffffffffffffffffffffff1614613de8576040517f08c379a000000000000000000000000000000000000000000000000000000000815260040180806020018281038252601e8152602001807f4f776e65722773207065726d697373696f6e206973207265717569726564000081525060200191505060405180910390fd5b6000600260066101000a81548160ff021916908315150217905550565b600080600160008463ffffffff1663ffffffff168152602001908152602001600020600901600060028110613e3657fe5b602091828204019190069054906101000a900460ff16600160008563ffffffff1663ffffffff168152602001908152602001600020600901600160028110613e7a57fe5b602091828204019190069054906101000a900460ff1691509150915091565b60606000805480602002602001604051908101604052809291908181526020018280548015613f1357602002820191906000526020600020906000905b82829054906101000a900463ffffffff1663ffffffff1681526020019060040190602082600301049283019260010382029150808411613ed65790505b5050505050905090565b828054600181600116156101000203166002900490600052602060002090601f016020900481019282601f10613f5e57805160ff1916838001178555613f8c565b82800160010185558215613f8c579182015b82811115613f8b578251825591602001919060010190613f70565b5b509050613f999190613ffa565b5090565b604051806101200160405280600990602082028038833980820191505090505090565b815481835581811115613ff5576007016008900481600701600890048360005260206000209182019101613ff49190613ffa565b5b505050565b61401c91905b80821115614018576000816000905550600101614000565b5090565b9056fe506f736974696f6e206d61726b6564212047616d652063726561746f722069732074686520706c617965722031506f736974696f6e206d61726b6564212047756573742069732074686520706c61796572203154686520706172616d65746572206d75737420636f6e7461696e20612076616c7565206c657373207468616e206d61782063656c6c2076616c7565206c696d6974a165627a7a723058200cd50418df0373eeac0e2d4b3a3fe77abf4cbfc84036ff68f4d8ea382d98c2580029",
  "source": "pragma solidity ^0.5.0;\n\n ///@title fun.fair _Consensys-bootcamp-final-project\n ///@author Sachin Mittal\n ///@notice Contract is built following the smart contract design pattern\n ///@dev StringSupport library is used for salted hash (commitment scheme)\n\n import \"./StringSupport.sol\";\n\ncontract GamesOnStakes {\n\n///@title Contract properties - Monolithic, experimental, efficient (Use of library)\n///@dev For any queries, generate an issue, or email at \" \"\n\n\n/** SIMPLE USE CASE\n\nSachin opens a game, bets 0.01 ether and appears in a list of users who are up to play\nSanchay sees Sachin on the list and accepts the game by betting 0.01 ether too\nSachin confirms and the game starts\nSachin and Sanchay make their moves, one after each other\nIf one of them wins, he or she can withdraw 0.02 ether from the contract\nIf the game ends in draw, both users can withdraw 0.01 ether\n*/\n\n\n/// STATE VARIABLES \n\n// The Game Object\n\nstruct Game \n  {    \n    uint32 index;            // position in openGames[] list\n    uint8[9] cells;          \n\n    uint8 status;                   \n    uint amount;                       \n\n    address[2] players;                 // Player's array\n    string[2] nicks;                    // Player's name Array\n    uint lastTransaction;               //timestamp => Block Number\n    bool[2] withdrawn;                  // If the money, is withdrawn or not\n\n    bytes32 creatorHash;                // The hash of player who created the game  \n    uint8 guestRandomNumber;            // The random number provided by the guest player for deciding who will play first\n  }\n\n    uint32[] openGames;                    // list of active games' id's\n    mapping(uint32 => Game) gamesData;     // To access the details of the game\n\n    uint32 nextGameIdx;                    // Pointer to help parse, and check conditions  \n    uint16 public timeout;                  // Game Timeout\n\n    // Pause\n    bool public contractPaused = false;\n    ///@notice Owner's address\n    address public owner;                    //owner of the contract\n\n\n     modifier onlyOwner(){\n    require(owner == msg.sender,\"Owner's permission is required\");\n    _;\n  }\n\n    modifier checkIfPaused() {\n    require(contractPaused == false,\" Contract is paused right now \");\n    _;\n  }\n\n\n    // @notice By default, after 10 minutes, timeout will occur\n    // @dev Value provided in the ./migrations/2_deploy_contract.js \n    // @param Game timeout \n    constructor(uint16 givenTimeout) public {\n      if(givenTimeout!= 0){\n          timeout = givenTimeout;    \n      }\n      else{\n        timeout = 10 minutes;\n      }\n    }\n\n    // EVENTS\n\n    event GameCreated(uint32 indexed gameIdx);\n    event GameAccepted(uint32 indexed gameIdx, address indexed opponent);\n    event GameStarted(uint32 indexed gameIdx, address indexed opponent);\n    event PositionMarked(uint32 indexed gameIdx, address indexed opponent);\n    event GameEnded(uint32 indexed gameIdx, address indexed opponent);\n\n\n    // Member Functions\n\n    //Callable \n\n    \n    function getOpenGames() \n    public \n    view \n    returns (uint32[] memory){\n      return openGames;\n    }\n\n    // Game Info - Name of the players, status of the game, \n    function getGameInfo(uint32 gameIdx)\n    public\n    view \n    returns (uint8[9] memory cells, uint8 status, uint amount, string memory nick1, string memory nick2) {\n        return (\n\n        gamesData[gameIdx].cells,\n        gamesData[gameIdx].status,\n        gamesData[gameIdx].amount,\n        gamesData[gameIdx].nicks[0],\n        gamesData[gameIdx].nicks[1]\n        );\n    }\n\n    function getGameTimestamp(uint32 gameIdx) \n    public \n    view \n  returns (uint lastTransaction) {\n      return (gamesData[gameIdx].lastTransaction);\n  }\n\n    function getGamePlayers(uint32 gameIdx) \n    public \n    view \n    returns (address player1, address player2) {\n        return (\n            gamesData[gameIdx].players[0],\n            gamesData[gameIdx].players[1]\n        );\n    }\n\n    function getGameWithdrawals(uint32 gameIdx) public view \n    returns (bool player1, bool player2) {\n        return (\n            gamesData[gameIdx].withdrawn[0],\n            gamesData[gameIdx].withdrawn[1]\n        );\n    }\n\n    // Operations\n\n   function createGame(bytes32 randomNumberHash, string memory nick) \n   public \n   payable \n   returns (uint32 gameIdx) {\n     require(nextGameIdx+1 > nextGameIdx);\n\n      gamesData[nextGameIdx].index = uint32(openGames.length);\n      gamesData[nextGameIdx].creatorHash = randomNumberHash;\n      gamesData[nextGameIdx].amount = msg.value;\n      gamesData[nextGameIdx].nicks[0] = nick;\n      gamesData[nextGameIdx].players[0] = msg.sender;\n      gamesData[nextGameIdx].lastTransaction = now;\n\n      openGames.push(nextGameIdx);\n\n      gameIdx = nextGameIdx;\n      emit GameCreated(nextGameIdx);\n\n      nextGameIdx++;\n  }\n\n\n    function acceptGame(uint32 gameIdx, uint8 randomNumber, string memory nick) \n    public \n    payable {\n    \n    require(gameIdx < nextGameIdx);\n    require(gamesData[gameIdx].players[0] != address(0x0));\n    require(msg.value == gamesData[gameIdx].amount);\n    require(gamesData[gameIdx].players[1] == address(0x0));\n    require(gamesData[gameIdx].status == 0);\n\n    gamesData[gameIdx].guestRandomNumber = randomNumber;\n    gamesData[gameIdx].nicks[1] = nick;\n    gamesData[gameIdx].players[1] = msg.sender;\n    gamesData[gameIdx].lastTransaction = now;\n\n    emit GameAccepted(gameIdx, gamesData[gameIdx].players[0]);\n\n    // Remove Accepted game from the openGames list\n    uint32 idxToDelete = uint32(gamesData[gameIdx].index);\n        uint32 lastOpenGameIdx = openGames[openGames.length - 1];\n        openGames[idxToDelete] = lastOpenGameIdx;\n        gamesData[lastOpenGameIdx].index = idxToDelete;\n        openGames.length--;\n\n    }\n\n    function confirmGame(uint32 gameIdx, uint8 revealedRandomNumber, string memory revealedSalt) public {\n        require(gameIdx < nextGameIdx);\n        require(gamesData[gameIdx].players[0] == msg.sender);\n        require(gamesData[gameIdx].players[1] != address(0x0));\n        require(gamesData[gameIdx].status == 0);\n\n      \n        bytes32 computedHash = saltedHash(revealedRandomNumber, revealedSalt);\n        if(computedHash != gamesData[gameIdx].creatorHash){\n            gamesData[gameIdx].status = 12;\n            emit GameEnded(gameIdx, msg.sender);\n            emit GameEnded(gameIdx, gamesData[gameIdx].players[1]);\n            return;\n        }\n\n        gamesData[gameIdx].lastTransaction = now;\n\n        // Logic for deciding turns, if even-even/odd-odd, game creator will have the first chance\n        // If odd-even, guest will have the first chance - ||Define starting player||\n        if((revealedRandomNumber ^ gamesData[gameIdx].guestRandomNumber) & 0x01 == 0){\n            gamesData[gameIdx].status = 1;\n            emit GameStarted(gameIdx, gamesData[gameIdx].players[1]);\n        }\n        else {\n            gamesData[gameIdx].status = 2;\n            emit GameStarted(gameIdx, gamesData[gameIdx].players[1]);\n        }\n    }\n\n\n    function markPosition(uint32 gameIdx, uint8 cell) public {\n\n        require(gameIdx < nextGameIdx);\n        require(cell<=8, \"The parameter must contain a value less than max cell value limit\");\n\n        uint8[9] storage cells = gamesData[gameIdx].cells;\n        require(cells[cell] == 0, \"No Player has started yet\");\n\n        if(gamesData[gameIdx].status == 1){\n          require(gamesData[gameIdx].players[0] == msg.sender, \"Position marked! Game creator is the player 1\");\n          \n          cells[cell] = 1;\n          emit PositionMarked(gameIdx, gamesData[gameIdx].players[1]);\n        }\n\n        else if(gamesData[gameIdx].status == 2){\n          require(gamesData[gameIdx].players[1] == msg.sender, \"Position marked! Guest is the player 1\");\n          \n          cells[cell] = 2;\n          emit PositionMarked(gameIdx, gamesData[gameIdx].players[0]);\n        }\n        else{\n          revert();\n        }\n\n        gamesData[gameIdx].lastTransaction = now;\n\n        // Board indexes:\n        //    0 1 2\n        //    3 4 5\n        //    6 7 8\n\n        // Detect a winner:\n        // Winning probability in all rows, and columns\n\n        if((cells[0] & cells [1] & cells [2] != 0x0) || (cells[3] & cells [4] & cells [5] != 0x0) ||\n        (cells[6] & cells [7] & cells [8] != 0x0) || (cells[0] & cells [3] & cells [6] != 0x0) ||\n        (cells[1] & cells [4] & cells [7] != 0x0) || (cells[2] & cells [5] & cells [8] != 0x0) ||\n        (cells[0] & cells [4] & cells [8] != 0x0) || (cells[2] & cells [4] & cells [6] != 0x0)) {\n            // winner\n            gamesData[gameIdx].status = 10 + cells[cell];  // 11 or 12\n            emit GameEnded(gameIdx, gamesData[gameIdx].players[0]);\n            emit GameEnded(gameIdx, gamesData[gameIdx].players[1]);\n        }\n\n        // All cells filled..! Hence, a draw\n        else if(cells[0] != 0x0 && cells[1] != 0x0 && cells[2] != 0x0 && \n            cells[3] != 0x0 && cells[4] != 0x0 && cells[5] != 0x0 && cells[6] != 0x0 && \n            cells[7] != 0x0 && cells[8] != 0x0) {\n            \n            gamesData[gameIdx].status = 10;\n            emit GameEnded(gameIdx, gamesData[gameIdx].players[0]);\n            emit GameEnded(gameIdx, gamesData[gameIdx].players[1]);\n        }\n        else {\n            if(cells[cell] == 1){\n                gamesData[gameIdx].status = 2;\n            }\n            else if(cells[cell] == 2){\n                gamesData[gameIdx].status = 1;\n            }\n            else{\n              revert();\n            }\n        }\n    }    \n    \n\n    function withdraw(uint32 gameIdx) public {\n      require(gameIdx < nextGameIdx);\n      require(gamesData[gameIdx].amount > 0, \"The bet amount can not be 0\");\n\n      uint8 status = gamesData[gameIdx].status;\n\n      // Since status = 0, consider it ends in a draw\n      if(status == 0) {\n      require((now - gamesData[gameIdx].lastTransaction) > timeout);\n\n          // Player 1 cancels the non-accepted game\n          if(gamesData[gameIdx].players[0] == msg.sender) {\n            // checking !withdrawn[0], status would not be 0\n            require(gamesData[gameIdx].players[1] == address(0x0));\n\n            gamesData[gameIdx].withdrawn[0] = true;\n            gamesData[gameIdx].status = 10; // consider it ended in draw\n            msg.sender.transfer(gamesData[gameIdx].amount);\n            \n            // The game was open\n            // Remove from the open games list\n            uint32 openListIdxToDelete = uint32(gamesData[gameIdx].index);\n            openGames[openListIdxToDelete] = openGames[openGames.length - 1];\n            gamesData[gameIdx].index = openListIdxToDelete;\n            openGames.length--;\n\n            emit GameEnded(gameIdx, msg.sender);\n          }\n          // Player 2 claims the non-confirmed game\n          else if(gamesData[gameIdx].players[1] == msg.sender) {\n              // checking !withdrawn[1] is redundant, status would not be 0\n\n              gamesData[gameIdx].withdrawn[1] = true;\n              gamesData[gameIdx].status = 12; // consider it won by P2\n              msg.sender.transfer(gamesData[gameIdx].amount * 2);\n          \n              // The game was not open: no need to clean it\n              // from the openGames[] list\n\n              emit GameEnded(gameIdx, msg.sender);\n          }\n          else {\n              revert();\n          }\n      }\n      else if(status == 1){\n        // Player2 won the game  \n        require(gamesData[gameIdx].players[1] == msg.sender);\n        require(now - gamesData[gameIdx].lastTransaction > timeout, \"Game is still alive\" );\n\n        gamesData[gameIdx].withdrawn[1] = true;\n        gamesData[gameIdx].status = 12;\n        msg.sender.transfer(gamesData[gameIdx].amount * 2);\n\n        emit GameEnded(gameIdx, gamesData[gameIdx].players[0]);\n      }\n      else if(status == 2){\n        // Player1 won the game\n        require(gamesData[gameIdx].players[0] == msg.sender);\n        require(now - gamesData[gameIdx].lastTransaction > timeout, \"Game is still alive\" );\n\n        gamesData[gameIdx].withdrawn[0] = true;\n        gamesData[gameIdx].status = 11;\n        msg.sender.transfer(gamesData[gameIdx].amount * 2);\n\n        emit GameEnded(gameIdx, gamesData[gameIdx].players[1]);\n      }\n      else if(status == 10){\n            if(gamesData[gameIdx].players[0] == msg.sender){\n                require(!gamesData[gameIdx].withdrawn[0]);\n\n                gamesData[gameIdx].withdrawn[0] = true;\n                msg.sender.transfer(gamesData[gameIdx].amount);\n            }\n            else if(gamesData[gameIdx].players[1] == msg.sender){\n          require(!gamesData[gameIdx].withdrawn[1]);\n\n          gamesData[gameIdx].withdrawn[1] = true;\n          msg.sender.transfer(gamesData[gameIdx].amount);\n           }\n           else{\n             revert();\n           }\n      }\n      else if(status == 11){\n          require(gamesData[gameIdx].players[0] == msg.sender);\n          require(!gamesData[gameIdx].withdrawn[0]);\n\n          gamesData[gameIdx].withdrawn[0] = true;\n          msg.sender.transfer(gamesData[gameIdx].amount * 2);\n      }\n      else if(status == 12){\n          require(gamesData[gameIdx].players[1] == msg.sender);\n          require(!gamesData[gameIdx].withdrawn[1]);\n\n          gamesData[gameIdx].withdrawn[1] = true;\n          msg.sender.transfer(gamesData[gameIdx].amount * 2);\n      }\n      else {\n          revert();\n      }\n    }\n\n   // The contract owner can pause all functionality\n    function circuitBreaker() public\n    onlyOwner\n    checkIfPaused{\n    contractPaused = true;\n    }\n    function circuitMaker() public\n    onlyOwner{\n      contractPaused = false;\n    }\n\n\n    // Imported from library - public helper function\n    function saltedHash(uint8 randomNumber, string memory salt) public pure returns (bytes32) {\n        return StringSupport.saltedHash(randomNumber, salt);\n    }\n\n    // Fallback function\n\n    function () external payable {\n        revert();\n    }\n\n}\n\n\n\n\n\n\n\n\n\n",
  "sourcePath": "/home/kira/github/fun-fair/blockchain/contracts/GamesOnStakes.sol",
  "compiler": {
    "name": "solc",
    "version": "0.5.8+commit.23d335f2.Emscripten.clang"
  },
  "schemaVersion": "3.0.11",
  "updatedAt": "2019-08-01T07:35:37.805Z",
  "devdoc": {
    "methods": {}
  },
  "userdoc": {
    "methods": {}
  }
}